{
  "contracts/MultisigWallet.sol": {
    "MultisigWallet": {
      "abi": [
        {
          "inputs": [
            {
              "internalType": "address[]",
              "name": "_approvers",
              "type": "address[]"
            },
            {
              "internalType": "uint256",
              "name": "_quorum",
              "type": "uint256"
            }
          ],
          "stateMutability": "nonpayable",
          "type": "constructor"
        },
        {
          "inputs": [
            {
              "internalType": "address",
              "name": "",
              "type": "address"
            },
            {
              "internalType": "uint256",
              "name": "",
              "type": "uint256"
            }
          ],
          "name": "approvals",
          "outputs": [
            {
              "internalType": "bool",
              "name": "",
              "type": "bool"
            }
          ],
          "stateMutability": "view",
          "type": "function"
        },
        {
          "inputs": [
            {
              "internalType": "uint256",
              "name": "id",
              "type": "uint256"
            }
          ],
          "name": "approveTransfer",
          "outputs": [],
          "stateMutability": "nonpayable",
          "type": "function"
        },
        {
          "inputs": [
            {
              "internalType": "uint256",
              "name": "",
              "type": "uint256"
            }
          ],
          "name": "approvers",
          "outputs": [
            {
              "internalType": "address",
              "name": "",
              "type": "address"
            }
          ],
          "stateMutability": "view",
          "type": "function"
        },
        {
          "inputs": [
            {
              "internalType": "uint256",
              "name": "amount",
              "type": "uint256"
            },
            {
              "internalType": "address payable",
              "name": "to",
              "type": "address"
            }
          ],
          "name": "createTransfer",
          "outputs": [],
          "stateMutability": "nonpayable",
          "type": "function"
        },
        {
          "inputs": [
            {
              "internalType": "address",
              "name": "approver",
              "type": "address"
            }
          ],
          "name": "getApprovalsByApprover",
          "outputs": [
            {
              "internalType": "bool[]",
              "name": "userApprovals",
              "type": "bool[]"
            }
          ],
          "stateMutability": "view",
          "type": "function"
        },
        {
          "inputs": [],
          "name": "getApprovers",
          "outputs": [
            {
              "internalType": "address[]",
              "name": "",
              "type": "address[]"
            }
          ],
          "stateMutability": "view",
          "type": "function"
        },
        {
          "inputs": [],
          "name": "getTransfers",
          "outputs": [
            {
              "components": [
                {
                  "internalType": "uint256",
                  "name": "id",
                  "type": "uint256"
                },
                {
                  "internalType": "uint256",
                  "name": "amount",
                  "type": "uint256"
                },
                {
                  "internalType": "address payable",
                  "name": "to",
                  "type": "address"
                },
                {
                  "internalType": "uint256",
                  "name": "approvals",
                  "type": "uint256"
                },
                {
                  "internalType": "bool",
                  "name": "sent",
                  "type": "bool"
                }
              ],
              "internalType": "struct MultisigWallet.Transfer[]",
              "name": "",
              "type": "tuple[]"
            }
          ],
          "stateMutability": "view",
          "type": "function"
        },
        {
          "inputs": [],
          "name": "quorum",
          "outputs": [
            {
              "internalType": "uint256",
              "name": "",
              "type": "uint256"
            }
          ],
          "stateMutability": "view",
          "type": "function"
        },
        {
          "inputs": [
            {
              "internalType": "uint256",
              "name": "",
              "type": "uint256"
            }
          ],
          "name": "transfers",
          "outputs": [
            {
              "internalType": "uint256",
              "name": "id",
              "type": "uint256"
            },
            {
              "internalType": "uint256",
              "name": "amount",
              "type": "uint256"
            },
            {
              "internalType": "address payable",
              "name": "to",
              "type": "address"
            },
            {
              "internalType": "uint256",
              "name": "approvals",
              "type": "uint256"
            },
            {
              "internalType": "bool",
              "name": "sent",
              "type": "bool"
            }
          ],
          "stateMutability": "view",
          "type": "function"
        },
        {
          "stateMutability": "payable",
          "type": "receive"
        }
      ],
      "evm": {
        "bytecode": {
          "linkReferences": {},
          "object": "60806040523480156200001157600080fd5b506040516200184f3803806200184f833981810160405281019062000037919062000336565b81600090805190602001906200004f9291906200005f565b508060018190555050506200039c565b828054828255906000526020600020908101928215620000db579160200282015b82811115620000da5782518260006101000a81548173ffffffffffffffffffffffffffffffffffffffff021916908373ffffffffffffffffffffffffffffffffffffffff1602179055509160200191906001019062000080565b5b509050620000ea9190620000ee565b5090565b5b8082111562000109576000816000905550600101620000ef565b5090565b6000604051905090565b600080fd5b600080fd5b600080fd5b6000601f19601f8301169050919050565b7f4e487b7100000000000000000000000000000000000000000000000000000000600052604160045260246000fd5b620001718262000126565b810181811067ffffffffffffffff8211171562000193576200019262000137565b5b80604052505050565b6000620001a86200010d565b9050620001b6828262000166565b919050565b600067ffffffffffffffff821115620001d957620001d862000137565b5b602082029050602081019050919050565b600080fd5b600073ffffffffffffffffffffffffffffffffffffffff82169050919050565b60006200021c82620001ef565b9050919050565b6200022e816200020f565b81146200023a57600080fd5b50565b6000815190506200024e8162000223565b92915050565b60006200026b6200026584620001bb565b6200019c565b90508083825260208201905060208402830185811115620002915762000290620001ea565b5b835b81811015620002be5780620002a988826200023d565b84526020840193505060208101905062000293565b5050509392505050565b600082601f830112620002e057620002df62000121565b5b8151620002f284826020860162000254565b91505092915050565b6000819050919050565b6200031081620002fb565b81146200031c57600080fd5b50565b600081519050620003308162000305565b92915050565b6000806040838503121562000350576200034f62000117565b5b600083015167ffffffffffffffff8111156200037157620003706200011c565b5b6200037f85828601620002c8565b925050602062000392858286016200031f565b9150509250929050565b6114a380620003ac6000396000f3fe60806040526004361061008a5760003560e01c80639377d711116100595780639377d711146101405780639e2e00c314610181578063cacca4a0146101be578063d3650fb8146101e7578063ffabc6731461022457610091565b80631703a018146100965780632f65142c146100c15780634c12fa47146100ec5780636cb3e8ef1461011557610091565b3661009157005b600080fd5b3480156100a257600080fd5b506100ab610261565b6040516100b89190610c5b565b60405180910390f35b3480156100cd57600080fd5b506100d6610267565b6040516100e39190610df8565b60405180910390f35b3480156100f857600080fd5b50610113600480360381019061010e9190610e77565b610355565b005b34801561012157600080fd5b5061012a610532565b6040516101379190610f87565b60405180910390f35b34801561014c57600080fd5b5061016760048036038101906101629190610fa9565b6105c0565b604051610178959493929190610ff4565b60405180910390f35b34801561018d57600080fd5b506101a860048036038101906101a39190611073565b610633565b6040516101b5919061114f565b60405180910390f35b3480156101ca57600080fd5b506101e560048036038101906101e09190610fa9565b610811565b005b3480156101f357600080fd5b5061020e60048036038101906102099190610fa9565b610bd4565b60405161021b9190611180565b60405180910390f35b34801561023057600080fd5b5061024b6004803603810190610246919061119b565b610c13565b60405161025891906111db565b60405180910390f35b60015481565b60606002805480602002602001604051908101604052809291908181526020016000905b8282101561034c57838290600052602060002090600502016040518060a001604052908160008201548152602001600182015481526020016002820160009054906101000a900473ffffffffffffffffffffffffffffffffffffffff1673ffffffffffffffffffffffffffffffffffffffff1673ffffffffffffffffffffffffffffffffffffffff168152602001600382015481526020016004820160009054906101000a900460ff1615151515815250508152602001906001019061028b565b50505050905090565b6000805b6000805490508110156103f4573373ffffffffffffffffffffffffffffffffffffffff1660008281548110610391576103906111f6565b5b9060005260206000200160009054906101000a900473ffffffffffffffffffffffffffffffffffffffff1673ffffffffffffffffffffffffffffffffffffffff1614156103e157600191506103f4565b80806103ec90611254565b915050610359565b5080610435576040517f08c379a000000000000000000000000000000000000000000000000000000000815260040161042c90611320565b60405180910390fd5b60026040518060a0016040528060028054905081526020018581526020018473ffffffffffffffffffffffffffffffffffffffff16815260200160008152602001600015158152509080600181540180825580915050600190039060005260206000209060050201600090919091909150600082015181600001556020820151816001015560408201518160020160006101000a81548173ffffffffffffffffffffffffffffffffffffffff021916908373ffffffffffffffffffffffffffffffffffffffff1602179055506060820151816003015560808201518160040160006101000a81548160ff0219169083151502179055505050505050565b606060008054806020026020016040519081016040528092919081815260200182805480156105b657602002820191906000526020600020905b8160009054906101000a900473ffffffffffffffffffffffffffffffffffffffff1673ffffffffffffffffffffffffffffffffffffffff168152602001906001019080831161056c575b5050505050905090565b600281815481106105d057600080fd5b90600052602060002090600502016000915090508060000154908060010154908060020160009054906101000a900473ffffffffffffffffffffffffffffffffffffffff16908060030154908060040160009054906101000a900460ff16905085565b60606000805b6000805490508110156106d4573373ffffffffffffffffffffffffffffffffffffffff1660008281548110610671576106706111f6565b5b9060005260206000200160009054906101000a900473ffffffffffffffffffffffffffffffffffffffff1673ffffffffffffffffffffffffffffffffffffffff1614156106c157600191506106d4565b80806106cc90611254565b915050610639565b5080610715576040517f08c379a000000000000000000000000000000000000000000000000000000000815260040161070c90611320565b60405180910390fd5b600060028054905090508067ffffffffffffffff81111561073957610738611340565b5b6040519080825280602002602001820160405280156107675781602001602082028036833780820191505090505b50925060005b8181101561080957600360008673ffffffffffffffffffffffffffffffffffffffff1673ffffffffffffffffffffffffffffffffffffffff168152602001908152602001600020600082815260200190815260200160002060009054906101000a900460ff168482815181106107e6576107e56111f6565b5b6020026020010190151590811515815250508061080290611254565b905061076d565b505050919050565b6000805b6000805490508110156108b0573373ffffffffffffffffffffffffffffffffffffffff166000828154811061084d5761084c6111f6565b5b9060005260206000200160009054906101000a900473ffffffffffffffffffffffffffffffffffffffff1673ffffffffffffffffffffffffffffffffffffffff16141561089d57600191506108b0565b80806108a890611254565b915050610815565b50806108f1576040517f08c379a00000000000000000000000000000000000000000000000000000000081526004016108e890611320565b60405180910390fd5b60028281548110610905576109046111f6565b5b906000526020600020906005020160040160009054906101000a900460ff1615610964576040517f08c379a000000000000000000000000000000000000000000000000000000000815260040161095b906113bb565b60405180910390fd5b600360003373ffffffffffffffffffffffffffffffffffffffff1673ffffffffffffffffffffffffffffffffffffffff168152602001908152602001600020600083815260200190815260200160002060009054906101000a900460ff1615610a02576040517f08c379a00000000000000000000000000000000000000000000000000000000081526004016109f99061144d565b60405180910390fd5b6001600360003373ffffffffffffffffffffffffffffffffffffffff1673ffffffffffffffffffffffffffffffffffffffff168152602001908152602001600020600084815260200190815260200160002060006101000a81548160ff02191690831515021790555060028281548110610a7f57610a7e6111f6565b5b90600052602060002090600502016003016000815480929190610aa190611254565b919050555060015460028381548110610abd57610abc6111f6565b5b90600052602060002090600502016003015410610bd057600160028381548110610aea57610ae96111f6565b5b906000526020600020906005020160040160006101000a81548160ff021916908315150217905550600060028381548110610b2857610b276111f6565b5b906000526020600020906005020160020160009054906101000a900473ffffffffffffffffffffffffffffffffffffffff169050600060028481548110610b7257610b716111f6565b5b90600052602060002090600502016001015490508173ffffffffffffffffffffffffffffffffffffffff166108fc829081150290604051600060405180830381858888f19350505050158015610bcc573d6000803e3d6000fd5b5050505b5050565b60008181548110610be457600080fd5b906000526020600020016000915054906101000a900473ffffffffffffffffffffffffffffffffffffffff1681565b60036020528160005260406000206020528060005260406000206000915091509054906101000a900460ff1681565b6000819050919050565b610c5581610c42565b82525050565b6000602082019050610c706000830184610c4c565b92915050565b600081519050919050565b600082825260208201905092915050565b6000819050602082019050919050565b610cab81610c42565b82525050565b600073ffffffffffffffffffffffffffffffffffffffff82169050919050565b6000610cdc82610cb1565b9050919050565b610cec81610cd1565b82525050565b60008115159050919050565b610d0781610cf2565b82525050565b60a082016000820151610d236000850182610ca2565b506020820151610d366020850182610ca2565b506040820151610d496040850182610ce3565b506060820151610d5c6060850182610ca2565b506080820151610d6f6080850182610cfe565b50505050565b6000610d818383610d0d565b60a08301905092915050565b6000602082019050919050565b6000610da582610c76565b610daf8185610c81565b9350610dba83610c92565b8060005b83811015610deb578151610dd28882610d75565b9750610ddd83610d8d565b925050600181019050610dbe565b5085935050505092915050565b60006020820190508181036000830152610e128184610d9a565b905092915050565b600080fd5b610e2881610c42565b8114610e3357600080fd5b50565b600081359050610e4581610e1f565b92915050565b610e5481610cd1565b8114610e5f57600080fd5b50565b600081359050610e7181610e4b565b92915050565b60008060408385031215610e8e57610e8d610e1a565b5b6000610e9c85828601610e36565b9250506020610ead85828601610e62565b9150509250929050565b600081519050919050565b600082825260208201905092915050565b6000819050602082019050919050565b6000610eee82610cb1565b9050919050565b610efe81610ee3565b82525050565b6000610f108383610ef5565b60208301905092915050565b6000602082019050919050565b6000610f3482610eb7565b610f3e8185610ec2565b9350610f4983610ed3565b8060005b83811015610f7a578151610f618882610f04565b9750610f6c83610f1c565b925050600181019050610f4d565b5085935050505092915050565b60006020820190508181036000830152610fa18184610f29565b905092915050565b600060208284031215610fbf57610fbe610e1a565b5b6000610fcd84828501610e36565b91505092915050565b610fdf81610cd1565b82525050565b610fee81610cf2565b82525050565b600060a0820190506110096000830188610c4c565b6110166020830187610c4c565b6110236040830186610fd6565b6110306060830185610c4c565b61103d6080830184610fe5565b9695505050505050565b61105081610ee3565b811461105b57600080fd5b50565b60008135905061106d81611047565b92915050565b60006020828403121561108957611088610e1a565b5b60006110978482850161105e565b91505092915050565b600081519050919050565b600082825260208201905092915050565b6000819050602082019050919050565b60006110d88383610cfe565b60208301905092915050565b6000602082019050919050565b60006110fc826110a0565b61110681856110ab565b9350611111836110bc565b8060005b8381101561114257815161112988826110cc565b9750611134836110e4565b925050600181019050611115565b5085935050505092915050565b6000602082019050818103600083015261116981846110f1565b905092915050565b61117a81610ee3565b82525050565b60006020820190506111956000830184611171565b92915050565b600080604083850312156111b2576111b1610e1a565b5b60006111c08582860161105e565b92505060206111d185828601610e36565b9150509250929050565b60006020820190506111f06000830184610fe5565b92915050565b7f4e487b7100000000000000000000000000000000000000000000000000000000600052603260045260246000fd5b7f4e487b7100000000000000000000000000000000000000000000000000000000600052601160045260246000fd5b600061125f82610c42565b91507fffffffffffffffffffffffffffffffffffffffffffffffffffffffffffffffff82141561129257611291611225565b5b600182019050919050565b600082825260208201905092915050565b7f6f6e6c7920616e20617070726f7665722063616e2063616c6c2074686973206660008201527f756e6374696f6e00000000000000000000000000000000000000000000000000602082015250565b600061130a60278361129d565b9150611315826112ae565b604082019050919050565b60006020820190508181036000830152611339816112fd565b9050919050565b7f4e487b7100000000000000000000000000000000000000000000000000000000600052604160045260246000fd5b7f7472616e736665722068617320616c7265616479206265656e2073656e740000600082015250565b60006113a5601e8361129d565b91506113b08261136f565b602082019050919050565b600060208201905081810360008301526113d481611398565b9050919050565b7f7472616e736665722068617320616c7265616479206265656e20617070726f7660008201527f6564000000000000000000000000000000000000000000000000000000000000602082015250565b600061143760228361129d565b9150611442826113db565b604082019050919050565b600060208201905081810360008301526114668161142a565b905091905056fea2646970667358221220595cf7dcb8d17c9f45450f8108f2c2fba8c4d3f062e3607b74f0cfabe3602b0364736f6c63430008090033",
          "opcodes": "PUSH1 0x80 PUSH1 0x40 MSTORE CALLVALUE DUP1 ISZERO PUSH3 0x11 JUMPI PUSH1 0x0 DUP1 REVERT JUMPDEST POP PUSH1 0x40 MLOAD PUSH3 0x184F CODESIZE SUB DUP1 PUSH3 0x184F DUP4 CODECOPY DUP2 DUP2 ADD PUSH1 0x40 MSTORE DUP2 ADD SWAP1 PUSH3 0x37 SWAP2 SWAP1 PUSH3 0x336 JUMP JUMPDEST DUP2 PUSH1 0x0 SWAP1 DUP1 MLOAD SWAP1 PUSH1 0x20 ADD SWAP1 PUSH3 0x4F SWAP3 SWAP2 SWAP1 PUSH3 0x5F JUMP JUMPDEST POP DUP1 PUSH1 0x1 DUP2 SWAP1 SSTORE POP POP POP PUSH3 0x39C JUMP JUMPDEST DUP3 DUP1 SLOAD DUP3 DUP3 SSTORE SWAP1 PUSH1 0x0 MSTORE PUSH1 0x20 PUSH1 0x0 KECCAK256 SWAP1 DUP2 ADD SWAP3 DUP3 ISZERO PUSH3 0xDB JUMPI SWAP2 PUSH1 0x20 MUL DUP3 ADD JUMPDEST DUP3 DUP2 GT ISZERO PUSH3 0xDA JUMPI DUP3 MLOAD DUP3 PUSH1 0x0 PUSH2 0x100 EXP DUP2 SLOAD DUP2 PUSH20 0xFFFFFFFFFFFFFFFFFFFFFFFFFFFFFFFFFFFFFFFF MUL NOT AND SWAP1 DUP4 PUSH20 0xFFFFFFFFFFFFFFFFFFFFFFFFFFFFFFFFFFFFFFFF AND MUL OR SWAP1 SSTORE POP SWAP2 PUSH1 0x20 ADD SWAP2 SWAP1 PUSH1 0x1 ADD SWAP1 PUSH3 0x80 JUMP JUMPDEST JUMPDEST POP SWAP1 POP PUSH3 0xEA SWAP2 SWAP1 PUSH3 0xEE JUMP JUMPDEST POP SWAP1 JUMP JUMPDEST JUMPDEST DUP1 DUP3 GT ISZERO PUSH3 0x109 JUMPI PUSH1 0x0 DUP2 PUSH1 0x0 SWAP1 SSTORE POP PUSH1 0x1 ADD PUSH3 0xEF JUMP JUMPDEST POP SWAP1 JUMP JUMPDEST PUSH1 0x0 PUSH1 0x40 MLOAD SWAP1 POP SWAP1 JUMP JUMPDEST PUSH1 0x0 DUP1 REVERT JUMPDEST PUSH1 0x0 DUP1 REVERT JUMPDEST PUSH1 0x0 DUP1 REVERT JUMPDEST PUSH1 0x0 PUSH1 0x1F NOT PUSH1 0x1F DUP4 ADD AND SWAP1 POP SWAP2 SWAP1 POP JUMP JUMPDEST PUSH32 0x4E487B7100000000000000000000000000000000000000000000000000000000 PUSH1 0x0 MSTORE PUSH1 0x41 PUSH1 0x4 MSTORE PUSH1 0x24 PUSH1 0x0 REVERT JUMPDEST PUSH3 0x171 DUP3 PUSH3 0x126 JUMP JUMPDEST DUP2 ADD DUP2 DUP2 LT PUSH8 0xFFFFFFFFFFFFFFFF DUP3 GT OR ISZERO PUSH3 0x193 JUMPI PUSH3 0x192 PUSH3 0x137 JUMP JUMPDEST JUMPDEST DUP1 PUSH1 0x40 MSTORE POP POP POP JUMP JUMPDEST PUSH1 0x0 PUSH3 0x1A8 PUSH3 0x10D JUMP JUMPDEST SWAP1 POP PUSH3 0x1B6 DUP3 DUP3 PUSH3 0x166 JUMP JUMPDEST SWAP2 SWAP1 POP JUMP JUMPDEST PUSH1 0x0 PUSH8 0xFFFFFFFFFFFFFFFF DUP3 GT ISZERO PUSH3 0x1D9 JUMPI PUSH3 0x1D8 PUSH3 0x137 JUMP JUMPDEST JUMPDEST PUSH1 0x20 DUP3 MUL SWAP1 POP PUSH1 0x20 DUP2 ADD SWAP1 POP SWAP2 SWAP1 POP JUMP JUMPDEST PUSH1 0x0 DUP1 REVERT JUMPDEST PUSH1 0x0 PUSH20 0xFFFFFFFFFFFFFFFFFFFFFFFFFFFFFFFFFFFFFFFF DUP3 AND SWAP1 POP SWAP2 SWAP1 POP JUMP JUMPDEST PUSH1 0x0 PUSH3 0x21C DUP3 PUSH3 0x1EF JUMP JUMPDEST SWAP1 POP SWAP2 SWAP1 POP JUMP JUMPDEST PUSH3 0x22E DUP2 PUSH3 0x20F JUMP JUMPDEST DUP2 EQ PUSH3 0x23A JUMPI PUSH1 0x0 DUP1 REVERT JUMPDEST POP JUMP JUMPDEST PUSH1 0x0 DUP2 MLOAD SWAP1 POP PUSH3 0x24E DUP2 PUSH3 0x223 JUMP JUMPDEST SWAP3 SWAP2 POP POP JUMP JUMPDEST PUSH1 0x0 PUSH3 0x26B PUSH3 0x265 DUP5 PUSH3 0x1BB JUMP JUMPDEST PUSH3 0x19C JUMP JUMPDEST SWAP1 POP DUP1 DUP4 DUP3 MSTORE PUSH1 0x20 DUP3 ADD SWAP1 POP PUSH1 0x20 DUP5 MUL DUP4 ADD DUP6 DUP2 GT ISZERO PUSH3 0x291 JUMPI PUSH3 0x290 PUSH3 0x1EA JUMP JUMPDEST JUMPDEST DUP4 JUMPDEST DUP2 DUP2 LT ISZERO PUSH3 0x2BE JUMPI DUP1 PUSH3 0x2A9 DUP9 DUP3 PUSH3 0x23D JUMP JUMPDEST DUP5 MSTORE PUSH1 0x20 DUP5 ADD SWAP4 POP POP PUSH1 0x20 DUP2 ADD SWAP1 POP PUSH3 0x293 JUMP JUMPDEST POP POP POP SWAP4 SWAP3 POP POP POP JUMP JUMPDEST PUSH1 0x0 DUP3 PUSH1 0x1F DUP4 ADD SLT PUSH3 0x2E0 JUMPI PUSH3 0x2DF PUSH3 0x121 JUMP JUMPDEST JUMPDEST DUP2 MLOAD PUSH3 0x2F2 DUP5 DUP3 PUSH1 0x20 DUP7 ADD PUSH3 0x254 JUMP JUMPDEST SWAP2 POP POP SWAP3 SWAP2 POP POP JUMP JUMPDEST PUSH1 0x0 DUP2 SWAP1 POP SWAP2 SWAP1 POP JUMP JUMPDEST PUSH3 0x310 DUP2 PUSH3 0x2FB JUMP JUMPDEST DUP2 EQ PUSH3 0x31C JUMPI PUSH1 0x0 DUP1 REVERT JUMPDEST POP JUMP JUMPDEST PUSH1 0x0 DUP2 MLOAD SWAP1 POP PUSH3 0x330 DUP2 PUSH3 0x305 JUMP JUMPDEST SWAP3 SWAP2 POP POP JUMP JUMPDEST PUSH1 0x0 DUP1 PUSH1 0x40 DUP4 DUP6 SUB SLT ISZERO PUSH3 0x350 JUMPI PUSH3 0x34F PUSH3 0x117 JUMP JUMPDEST JUMPDEST PUSH1 0x0 DUP4 ADD MLOAD PUSH8 0xFFFFFFFFFFFFFFFF DUP2 GT ISZERO PUSH3 0x371 JUMPI PUSH3 0x370 PUSH3 0x11C JUMP JUMPDEST JUMPDEST PUSH3 0x37F DUP6 DUP3 DUP7 ADD PUSH3 0x2C8 JUMP JUMPDEST SWAP3 POP POP PUSH1 0x20 PUSH3 0x392 DUP6 DUP3 DUP7 ADD PUSH3 0x31F JUMP JUMPDEST SWAP2 POP POP SWAP3 POP SWAP3 SWAP1 POP JUMP JUMPDEST PUSH2 0x14A3 DUP1 PUSH3 0x3AC PUSH1 0x0 CODECOPY PUSH1 0x0 RETURN INVALID PUSH1 0x80 PUSH1 0x40 MSTORE PUSH1 0x4 CALLDATASIZE LT PUSH2 0x8A JUMPI PUSH1 0x0 CALLDATALOAD PUSH1 0xE0 SHR DUP1 PUSH4 0x9377D711 GT PUSH2 0x59 JUMPI DUP1 PUSH4 0x9377D711 EQ PUSH2 0x140 JUMPI DUP1 PUSH4 0x9E2E00C3 EQ PUSH2 0x181 JUMPI DUP1 PUSH4 0xCACCA4A0 EQ PUSH2 0x1BE JUMPI DUP1 PUSH4 0xD3650FB8 EQ PUSH2 0x1E7 JUMPI DUP1 PUSH4 0xFFABC673 EQ PUSH2 0x224 JUMPI PUSH2 0x91 JUMP JUMPDEST DUP1 PUSH4 0x1703A018 EQ PUSH2 0x96 JUMPI DUP1 PUSH4 0x2F65142C EQ PUSH2 0xC1 JUMPI DUP1 PUSH4 0x4C12FA47 EQ PUSH2 0xEC JUMPI DUP1 PUSH4 0x6CB3E8EF EQ PUSH2 0x115 JUMPI PUSH2 0x91 JUMP JUMPDEST CALLDATASIZE PUSH2 0x91 JUMPI STOP JUMPDEST PUSH1 0x0 DUP1 REVERT JUMPDEST CALLVALUE DUP1 ISZERO PUSH2 0xA2 JUMPI PUSH1 0x0 DUP1 REVERT JUMPDEST POP PUSH2 0xAB PUSH2 0x261 JUMP JUMPDEST PUSH1 0x40 MLOAD PUSH2 0xB8 SWAP2 SWAP1 PUSH2 0xC5B JUMP JUMPDEST PUSH1 0x40 MLOAD DUP1 SWAP2 SUB SWAP1 RETURN JUMPDEST CALLVALUE DUP1 ISZERO PUSH2 0xCD JUMPI PUSH1 0x0 DUP1 REVERT JUMPDEST POP PUSH2 0xD6 PUSH2 0x267 JUMP JUMPDEST PUSH1 0x40 MLOAD PUSH2 0xE3 SWAP2 SWAP1 PUSH2 0xDF8 JUMP JUMPDEST PUSH1 0x40 MLOAD DUP1 SWAP2 SUB SWAP1 RETURN JUMPDEST CALLVALUE DUP1 ISZERO PUSH2 0xF8 JUMPI PUSH1 0x0 DUP1 REVERT JUMPDEST POP PUSH2 0x113 PUSH1 0x4 DUP1 CALLDATASIZE SUB DUP2 ADD SWAP1 PUSH2 0x10E SWAP2 SWAP1 PUSH2 0xE77 JUMP JUMPDEST PUSH2 0x355 JUMP JUMPDEST STOP JUMPDEST CALLVALUE DUP1 ISZERO PUSH2 0x121 JUMPI PUSH1 0x0 DUP1 REVERT JUMPDEST POP PUSH2 0x12A PUSH2 0x532 JUMP JUMPDEST PUSH1 0x40 MLOAD PUSH2 0x137 SWAP2 SWAP1 PUSH2 0xF87 JUMP JUMPDEST PUSH1 0x40 MLOAD DUP1 SWAP2 SUB SWAP1 RETURN JUMPDEST CALLVALUE DUP1 ISZERO PUSH2 0x14C JUMPI PUSH1 0x0 DUP1 REVERT JUMPDEST POP PUSH2 0x167 PUSH1 0x4 DUP1 CALLDATASIZE SUB DUP2 ADD SWAP1 PUSH2 0x162 SWAP2 SWAP1 PUSH2 0xFA9 JUMP JUMPDEST PUSH2 0x5C0 JUMP JUMPDEST PUSH1 0x40 MLOAD PUSH2 0x178 SWAP6 SWAP5 SWAP4 SWAP3 SWAP2 SWAP1 PUSH2 0xFF4 JUMP JUMPDEST PUSH1 0x40 MLOAD DUP1 SWAP2 SUB SWAP1 RETURN JUMPDEST CALLVALUE DUP1 ISZERO PUSH2 0x18D JUMPI PUSH1 0x0 DUP1 REVERT JUMPDEST POP PUSH2 0x1A8 PUSH1 0x4 DUP1 CALLDATASIZE SUB DUP2 ADD SWAP1 PUSH2 0x1A3 SWAP2 SWAP1 PUSH2 0x1073 JUMP JUMPDEST PUSH2 0x633 JUMP JUMPDEST PUSH1 0x40 MLOAD PUSH2 0x1B5 SWAP2 SWAP1 PUSH2 0x114F JUMP JUMPDEST PUSH1 0x40 MLOAD DUP1 SWAP2 SUB SWAP1 RETURN JUMPDEST CALLVALUE DUP1 ISZERO PUSH2 0x1CA JUMPI PUSH1 0x0 DUP1 REVERT JUMPDEST POP PUSH2 0x1E5 PUSH1 0x4 DUP1 CALLDATASIZE SUB DUP2 ADD SWAP1 PUSH2 0x1E0 SWAP2 SWAP1 PUSH2 0xFA9 JUMP JUMPDEST PUSH2 0x811 JUMP JUMPDEST STOP JUMPDEST CALLVALUE DUP1 ISZERO PUSH2 0x1F3 JUMPI PUSH1 0x0 DUP1 REVERT JUMPDEST POP PUSH2 0x20E PUSH1 0x4 DUP1 CALLDATASIZE SUB DUP2 ADD SWAP1 PUSH2 0x209 SWAP2 SWAP1 PUSH2 0xFA9 JUMP JUMPDEST PUSH2 0xBD4 JUMP JUMPDEST PUSH1 0x40 MLOAD PUSH2 0x21B SWAP2 SWAP1 PUSH2 0x1180 JUMP JUMPDEST PUSH1 0x40 MLOAD DUP1 SWAP2 SUB SWAP1 RETURN JUMPDEST CALLVALUE DUP1 ISZERO PUSH2 0x230 JUMPI PUSH1 0x0 DUP1 REVERT JUMPDEST POP PUSH2 0x24B PUSH1 0x4 DUP1 CALLDATASIZE SUB DUP2 ADD SWAP1 PUSH2 0x246 SWAP2 SWAP1 PUSH2 0x119B JUMP JUMPDEST PUSH2 0xC13 JUMP JUMPDEST PUSH1 0x40 MLOAD PUSH2 0x258 SWAP2 SWAP1 PUSH2 0x11DB JUMP JUMPDEST PUSH1 0x40 MLOAD DUP1 SWAP2 SUB SWAP1 RETURN JUMPDEST PUSH1 0x1 SLOAD DUP2 JUMP JUMPDEST PUSH1 0x60 PUSH1 0x2 DUP1 SLOAD DUP1 PUSH1 0x20 MUL PUSH1 0x20 ADD PUSH1 0x40 MLOAD SWAP1 DUP2 ADD PUSH1 0x40 MSTORE DUP1 SWAP3 SWAP2 SWAP1 DUP2 DUP2 MSTORE PUSH1 0x20 ADD PUSH1 0x0 SWAP1 JUMPDEST DUP3 DUP3 LT ISZERO PUSH2 0x34C JUMPI DUP4 DUP3 SWAP1 PUSH1 0x0 MSTORE PUSH1 0x20 PUSH1 0x0 KECCAK256 SWAP1 PUSH1 0x5 MUL ADD PUSH1 0x40 MLOAD DUP1 PUSH1 0xA0 ADD PUSH1 0x40 MSTORE SWAP1 DUP2 PUSH1 0x0 DUP3 ADD SLOAD DUP2 MSTORE PUSH1 0x20 ADD PUSH1 0x1 DUP3 ADD SLOAD DUP2 MSTORE PUSH1 0x20 ADD PUSH1 0x2 DUP3 ADD PUSH1 0x0 SWAP1 SLOAD SWAP1 PUSH2 0x100 EXP SWAP1 DIV PUSH20 0xFFFFFFFFFFFFFFFFFFFFFFFFFFFFFFFFFFFFFFFF AND PUSH20 0xFFFFFFFFFFFFFFFFFFFFFFFFFFFFFFFFFFFFFFFF AND PUSH20 0xFFFFFFFFFFFFFFFFFFFFFFFFFFFFFFFFFFFFFFFF AND DUP2 MSTORE PUSH1 0x20 ADD PUSH1 0x3 DUP3 ADD SLOAD DUP2 MSTORE PUSH1 0x20 ADD PUSH1 0x4 DUP3 ADD PUSH1 0x0 SWAP1 SLOAD SWAP1 PUSH2 0x100 EXP SWAP1 DIV PUSH1 0xFF AND ISZERO ISZERO ISZERO ISZERO DUP2 MSTORE POP POP DUP2 MSTORE PUSH1 0x20 ADD SWAP1 PUSH1 0x1 ADD SWAP1 PUSH2 0x28B JUMP JUMPDEST POP POP POP POP SWAP1 POP SWAP1 JUMP JUMPDEST PUSH1 0x0 DUP1 JUMPDEST PUSH1 0x0 DUP1 SLOAD SWAP1 POP DUP2 LT ISZERO PUSH2 0x3F4 JUMPI CALLER PUSH20 0xFFFFFFFFFFFFFFFFFFFFFFFFFFFFFFFFFFFFFFFF AND PUSH1 0x0 DUP3 DUP2 SLOAD DUP2 LT PUSH2 0x391 JUMPI PUSH2 0x390 PUSH2 0x11F6 JUMP JUMPDEST JUMPDEST SWAP1 PUSH1 0x0 MSTORE PUSH1 0x20 PUSH1 0x0 KECCAK256 ADD PUSH1 0x0 SWAP1 SLOAD SWAP1 PUSH2 0x100 EXP SWAP1 DIV PUSH20 0xFFFFFFFFFFFFFFFFFFFFFFFFFFFFFFFFFFFFFFFF AND PUSH20 0xFFFFFFFFFFFFFFFFFFFFFFFFFFFFFFFFFFFFFFFF AND EQ ISZERO PUSH2 0x3E1 JUMPI PUSH1 0x1 SWAP2 POP PUSH2 0x3F4 JUMP JUMPDEST DUP1 DUP1 PUSH2 0x3EC SWAP1 PUSH2 0x1254 JUMP JUMPDEST SWAP2 POP POP PUSH2 0x359 JUMP JUMPDEST POP DUP1 PUSH2 0x435 JUMPI PUSH1 0x40 MLOAD PUSH32 0x8C379A000000000000000000000000000000000000000000000000000000000 DUP2 MSTORE PUSH1 0x4 ADD PUSH2 0x42C SWAP1 PUSH2 0x1320 JUMP JUMPDEST PUSH1 0x40 MLOAD DUP1 SWAP2 SUB SWAP1 REVERT JUMPDEST PUSH1 0x2 PUSH1 0x40 MLOAD DUP1 PUSH1 0xA0 ADD PUSH1 0x40 MSTORE DUP1 PUSH1 0x2 DUP1 SLOAD SWAP1 POP DUP2 MSTORE PUSH1 0x20 ADD DUP6 DUP2 MSTORE PUSH1 0x20 ADD DUP5 PUSH20 0xFFFFFFFFFFFFFFFFFFFFFFFFFFFFFFFFFFFFFFFF AND DUP2 MSTORE PUSH1 0x20 ADD PUSH1 0x0 DUP2 MSTORE PUSH1 0x20 ADD PUSH1 0x0 ISZERO ISZERO DUP2 MSTORE POP SWAP1 DUP1 PUSH1 0x1 DUP2 SLOAD ADD DUP1 DUP3 SSTORE DUP1 SWAP2 POP POP PUSH1 0x1 SWAP1 SUB SWAP1 PUSH1 0x0 MSTORE PUSH1 0x20 PUSH1 0x0 KECCAK256 SWAP1 PUSH1 0x5 MUL ADD PUSH1 0x0 SWAP1 SWAP2 SWAP1 SWAP2 SWAP1 SWAP2 POP PUSH1 0x0 DUP3 ADD MLOAD DUP2 PUSH1 0x0 ADD SSTORE PUSH1 0x20 DUP3 ADD MLOAD DUP2 PUSH1 0x1 ADD SSTORE PUSH1 0x40 DUP3 ADD MLOAD DUP2 PUSH1 0x2 ADD PUSH1 0x0 PUSH2 0x100 EXP DUP2 SLOAD DUP2 PUSH20 0xFFFFFFFFFFFFFFFFFFFFFFFFFFFFFFFFFFFFFFFF MUL NOT AND SWAP1 DUP4 PUSH20 0xFFFFFFFFFFFFFFFFFFFFFFFFFFFFFFFFFFFFFFFF AND MUL OR SWAP1 SSTORE POP PUSH1 0x60 DUP3 ADD MLOAD DUP2 PUSH1 0x3 ADD SSTORE PUSH1 0x80 DUP3 ADD MLOAD DUP2 PUSH1 0x4 ADD PUSH1 0x0 PUSH2 0x100 EXP DUP2 SLOAD DUP2 PUSH1 0xFF MUL NOT AND SWAP1 DUP4 ISZERO ISZERO MUL OR SWAP1 SSTORE POP POP POP POP POP POP JUMP JUMPDEST PUSH1 0x60 PUSH1 0x0 DUP1 SLOAD DUP1 PUSH1 0x20 MUL PUSH1 0x20 ADD PUSH1 0x40 MLOAD SWAP1 DUP2 ADD PUSH1 0x40 MSTORE DUP1 SWAP3 SWAP2 SWAP1 DUP2 DUP2 MSTORE PUSH1 0x20 ADD DUP3 DUP1 SLOAD DUP1 ISZERO PUSH2 0x5B6 JUMPI PUSH1 0x20 MUL DUP3 ADD SWAP2 SWAP1 PUSH1 0x0 MSTORE PUSH1 0x20 PUSH1 0x0 KECCAK256 SWAP1 JUMPDEST DUP2 PUSH1 0x0 SWAP1 SLOAD SWAP1 PUSH2 0x100 EXP SWAP1 DIV PUSH20 0xFFFFFFFFFFFFFFFFFFFFFFFFFFFFFFFFFFFFFFFF AND PUSH20 0xFFFFFFFFFFFFFFFFFFFFFFFFFFFFFFFFFFFFFFFF AND DUP2 MSTORE PUSH1 0x20 ADD SWAP1 PUSH1 0x1 ADD SWAP1 DUP1 DUP4 GT PUSH2 0x56C JUMPI JUMPDEST POP POP POP POP POP SWAP1 POP SWAP1 JUMP JUMPDEST PUSH1 0x2 DUP2 DUP2 SLOAD DUP2 LT PUSH2 0x5D0 JUMPI PUSH1 0x0 DUP1 REVERT JUMPDEST SWAP1 PUSH1 0x0 MSTORE PUSH1 0x20 PUSH1 0x0 KECCAK256 SWAP1 PUSH1 0x5 MUL ADD PUSH1 0x0 SWAP2 POP SWAP1 POP DUP1 PUSH1 0x0 ADD SLOAD SWAP1 DUP1 PUSH1 0x1 ADD SLOAD SWAP1 DUP1 PUSH1 0x2 ADD PUSH1 0x0 SWAP1 SLOAD SWAP1 PUSH2 0x100 EXP SWAP1 DIV PUSH20 0xFFFFFFFFFFFFFFFFFFFFFFFFFFFFFFFFFFFFFFFF AND SWAP1 DUP1 PUSH1 0x3 ADD SLOAD SWAP1 DUP1 PUSH1 0x4 ADD PUSH1 0x0 SWAP1 SLOAD SWAP1 PUSH2 0x100 EXP SWAP1 DIV PUSH1 0xFF AND SWAP1 POP DUP6 JUMP JUMPDEST PUSH1 0x60 PUSH1 0x0 DUP1 JUMPDEST PUSH1 0x0 DUP1 SLOAD SWAP1 POP DUP2 LT ISZERO PUSH2 0x6D4 JUMPI CALLER PUSH20 0xFFFFFFFFFFFFFFFFFFFFFFFFFFFFFFFFFFFFFFFF AND PUSH1 0x0 DUP3 DUP2 SLOAD DUP2 LT PUSH2 0x671 JUMPI PUSH2 0x670 PUSH2 0x11F6 JUMP JUMPDEST JUMPDEST SWAP1 PUSH1 0x0 MSTORE PUSH1 0x20 PUSH1 0x0 KECCAK256 ADD PUSH1 0x0 SWAP1 SLOAD SWAP1 PUSH2 0x100 EXP SWAP1 DIV PUSH20 0xFFFFFFFFFFFFFFFFFFFFFFFFFFFFFFFFFFFFFFFF AND PUSH20 0xFFFFFFFFFFFFFFFFFFFFFFFFFFFFFFFFFFFFFFFF AND EQ ISZERO PUSH2 0x6C1 JUMPI PUSH1 0x1 SWAP2 POP PUSH2 0x6D4 JUMP JUMPDEST DUP1 DUP1 PUSH2 0x6CC SWAP1 PUSH2 0x1254 JUMP JUMPDEST SWAP2 POP POP PUSH2 0x639 JUMP JUMPDEST POP DUP1 PUSH2 0x715 JUMPI PUSH1 0x40 MLOAD PUSH32 0x8C379A000000000000000000000000000000000000000000000000000000000 DUP2 MSTORE PUSH1 0x4 ADD PUSH2 0x70C SWAP1 PUSH2 0x1320 JUMP JUMPDEST PUSH1 0x40 MLOAD DUP1 SWAP2 SUB SWAP1 REVERT JUMPDEST PUSH1 0x0 PUSH1 0x2 DUP1 SLOAD SWAP1 POP SWAP1 POP DUP1 PUSH8 0xFFFFFFFFFFFFFFFF DUP2 GT ISZERO PUSH2 0x739 JUMPI PUSH2 0x738 PUSH2 0x1340 JUMP JUMPDEST JUMPDEST PUSH1 0x40 MLOAD SWAP1 DUP1 DUP3 MSTORE DUP1 PUSH1 0x20 MUL PUSH1 0x20 ADD DUP3 ADD PUSH1 0x40 MSTORE DUP1 ISZERO PUSH2 0x767 JUMPI DUP2 PUSH1 0x20 ADD PUSH1 0x20 DUP3 MUL DUP1 CALLDATASIZE DUP4 CALLDATACOPY DUP1 DUP3 ADD SWAP2 POP POP SWAP1 POP JUMPDEST POP SWAP3 POP PUSH1 0x0 JUMPDEST DUP2 DUP2 LT ISZERO PUSH2 0x809 JUMPI PUSH1 0x3 PUSH1 0x0 DUP7 PUSH20 0xFFFFFFFFFFFFFFFFFFFFFFFFFFFFFFFFFFFFFFFF AND PUSH20 0xFFFFFFFFFFFFFFFFFFFFFFFFFFFFFFFFFFFFFFFF AND DUP2 MSTORE PUSH1 0x20 ADD SWAP1 DUP2 MSTORE PUSH1 0x20 ADD PUSH1 0x0 KECCAK256 PUSH1 0x0 DUP3 DUP2 MSTORE PUSH1 0x20 ADD SWAP1 DUP2 MSTORE PUSH1 0x20 ADD PUSH1 0x0 KECCAK256 PUSH1 0x0 SWAP1 SLOAD SWAP1 PUSH2 0x100 EXP SWAP1 DIV PUSH1 0xFF AND DUP5 DUP3 DUP2 MLOAD DUP2 LT PUSH2 0x7E6 JUMPI PUSH2 0x7E5 PUSH2 0x11F6 JUMP JUMPDEST JUMPDEST PUSH1 0x20 MUL PUSH1 0x20 ADD ADD SWAP1 ISZERO ISZERO SWAP1 DUP2 ISZERO ISZERO DUP2 MSTORE POP POP DUP1 PUSH2 0x802 SWAP1 PUSH2 0x1254 JUMP JUMPDEST SWAP1 POP PUSH2 0x76D JUMP JUMPDEST POP POP POP SWAP2 SWAP1 POP JUMP JUMPDEST PUSH1 0x0 DUP1 JUMPDEST PUSH1 0x0 DUP1 SLOAD SWAP1 POP DUP2 LT ISZERO PUSH2 0x8B0 JUMPI CALLER PUSH20 0xFFFFFFFFFFFFFFFFFFFFFFFFFFFFFFFFFFFFFFFF AND PUSH1 0x0 DUP3 DUP2 SLOAD DUP2 LT PUSH2 0x84D JUMPI PUSH2 0x84C PUSH2 0x11F6 JUMP JUMPDEST JUMPDEST SWAP1 PUSH1 0x0 MSTORE PUSH1 0x20 PUSH1 0x0 KECCAK256 ADD PUSH1 0x0 SWAP1 SLOAD SWAP1 PUSH2 0x100 EXP SWAP1 DIV PUSH20 0xFFFFFFFFFFFFFFFFFFFFFFFFFFFFFFFFFFFFFFFF AND PUSH20 0xFFFFFFFFFFFFFFFFFFFFFFFFFFFFFFFFFFFFFFFF AND EQ ISZERO PUSH2 0x89D JUMPI PUSH1 0x1 SWAP2 POP PUSH2 0x8B0 JUMP JUMPDEST DUP1 DUP1 PUSH2 0x8A8 SWAP1 PUSH2 0x1254 JUMP JUMPDEST SWAP2 POP POP PUSH2 0x815 JUMP JUMPDEST POP DUP1 PUSH2 0x8F1 JUMPI PUSH1 0x40 MLOAD PUSH32 0x8C379A000000000000000000000000000000000000000000000000000000000 DUP2 MSTORE PUSH1 0x4 ADD PUSH2 0x8E8 SWAP1 PUSH2 0x1320 JUMP JUMPDEST PUSH1 0x40 MLOAD DUP1 SWAP2 SUB SWAP1 REVERT JUMPDEST PUSH1 0x2 DUP3 DUP2 SLOAD DUP2 LT PUSH2 0x905 JUMPI PUSH2 0x904 PUSH2 0x11F6 JUMP JUMPDEST JUMPDEST SWAP1 PUSH1 0x0 MSTORE PUSH1 0x20 PUSH1 0x0 KECCAK256 SWAP1 PUSH1 0x5 MUL ADD PUSH1 0x4 ADD PUSH1 0x0 SWAP1 SLOAD SWAP1 PUSH2 0x100 EXP SWAP1 DIV PUSH1 0xFF AND ISZERO PUSH2 0x964 JUMPI PUSH1 0x40 MLOAD PUSH32 0x8C379A000000000000000000000000000000000000000000000000000000000 DUP2 MSTORE PUSH1 0x4 ADD PUSH2 0x95B SWAP1 PUSH2 0x13BB JUMP JUMPDEST PUSH1 0x40 MLOAD DUP1 SWAP2 SUB SWAP1 REVERT JUMPDEST PUSH1 0x3 PUSH1 0x0 CALLER PUSH20 0xFFFFFFFFFFFFFFFFFFFFFFFFFFFFFFFFFFFFFFFF AND PUSH20 0xFFFFFFFFFFFFFFFFFFFFFFFFFFFFFFFFFFFFFFFF AND DUP2 MSTORE PUSH1 0x20 ADD SWAP1 DUP2 MSTORE PUSH1 0x20 ADD PUSH1 0x0 KECCAK256 PUSH1 0x0 DUP4 DUP2 MSTORE PUSH1 0x20 ADD SWAP1 DUP2 MSTORE PUSH1 0x20 ADD PUSH1 0x0 KECCAK256 PUSH1 0x0 SWAP1 SLOAD SWAP1 PUSH2 0x100 EXP SWAP1 DIV PUSH1 0xFF AND ISZERO PUSH2 0xA02 JUMPI PUSH1 0x40 MLOAD PUSH32 0x8C379A000000000000000000000000000000000000000000000000000000000 DUP2 MSTORE PUSH1 0x4 ADD PUSH2 0x9F9 SWAP1 PUSH2 0x144D JUMP JUMPDEST PUSH1 0x40 MLOAD DUP1 SWAP2 SUB SWAP1 REVERT JUMPDEST PUSH1 0x1 PUSH1 0x3 PUSH1 0x0 CALLER PUSH20 0xFFFFFFFFFFFFFFFFFFFFFFFFFFFFFFFFFFFFFFFF AND PUSH20 0xFFFFFFFFFFFFFFFFFFFFFFFFFFFFFFFFFFFFFFFF AND DUP2 MSTORE PUSH1 0x20 ADD SWAP1 DUP2 MSTORE PUSH1 0x20 ADD PUSH1 0x0 KECCAK256 PUSH1 0x0 DUP5 DUP2 MSTORE PUSH1 0x20 ADD SWAP1 DUP2 MSTORE PUSH1 0x20 ADD PUSH1 0x0 KECCAK256 PUSH1 0x0 PUSH2 0x100 EXP DUP2 SLOAD DUP2 PUSH1 0xFF MUL NOT AND SWAP1 DUP4 ISZERO ISZERO MUL OR SWAP1 SSTORE POP PUSH1 0x2 DUP3 DUP2 SLOAD DUP2 LT PUSH2 0xA7F JUMPI PUSH2 0xA7E PUSH2 0x11F6 JUMP JUMPDEST JUMPDEST SWAP1 PUSH1 0x0 MSTORE PUSH1 0x20 PUSH1 0x0 KECCAK256 SWAP1 PUSH1 0x5 MUL ADD PUSH1 0x3 ADD PUSH1 0x0 DUP2 SLOAD DUP1 SWAP3 SWAP2 SWAP1 PUSH2 0xAA1 SWAP1 PUSH2 0x1254 JUMP JUMPDEST SWAP2 SWAP1 POP SSTORE POP PUSH1 0x1 SLOAD PUSH1 0x2 DUP4 DUP2 SLOAD DUP2 LT PUSH2 0xABD JUMPI PUSH2 0xABC PUSH2 0x11F6 JUMP JUMPDEST JUMPDEST SWAP1 PUSH1 0x0 MSTORE PUSH1 0x20 PUSH1 0x0 KECCAK256 SWAP1 PUSH1 0x5 MUL ADD PUSH1 0x3 ADD SLOAD LT PUSH2 0xBD0 JUMPI PUSH1 0x1 PUSH1 0x2 DUP4 DUP2 SLOAD DUP2 LT PUSH2 0xAEA JUMPI PUSH2 0xAE9 PUSH2 0x11F6 JUMP JUMPDEST JUMPDEST SWAP1 PUSH1 0x0 MSTORE PUSH1 0x20 PUSH1 0x0 KECCAK256 SWAP1 PUSH1 0x5 MUL ADD PUSH1 0x4 ADD PUSH1 0x0 PUSH2 0x100 EXP DUP2 SLOAD DUP2 PUSH1 0xFF MUL NOT AND SWAP1 DUP4 ISZERO ISZERO MUL OR SWAP1 SSTORE POP PUSH1 0x0 PUSH1 0x2 DUP4 DUP2 SLOAD DUP2 LT PUSH2 0xB28 JUMPI PUSH2 0xB27 PUSH2 0x11F6 JUMP JUMPDEST JUMPDEST SWAP1 PUSH1 0x0 MSTORE PUSH1 0x20 PUSH1 0x0 KECCAK256 SWAP1 PUSH1 0x5 MUL ADD PUSH1 0x2 ADD PUSH1 0x0 SWAP1 SLOAD SWAP1 PUSH2 0x100 EXP SWAP1 DIV PUSH20 0xFFFFFFFFFFFFFFFFFFFFFFFFFFFFFFFFFFFFFFFF AND SWAP1 POP PUSH1 0x0 PUSH1 0x2 DUP5 DUP2 SLOAD DUP2 LT PUSH2 0xB72 JUMPI PUSH2 0xB71 PUSH2 0x11F6 JUMP JUMPDEST JUMPDEST SWAP1 PUSH1 0x0 MSTORE PUSH1 0x20 PUSH1 0x0 KECCAK256 SWAP1 PUSH1 0x5 MUL ADD PUSH1 0x1 ADD SLOAD SWAP1 POP DUP2 PUSH20 0xFFFFFFFFFFFFFFFFFFFFFFFFFFFFFFFFFFFFFFFF AND PUSH2 0x8FC DUP3 SWAP1 DUP2 ISZERO MUL SWAP1 PUSH1 0x40 MLOAD PUSH1 0x0 PUSH1 0x40 MLOAD DUP1 DUP4 SUB DUP2 DUP6 DUP9 DUP9 CALL SWAP4 POP POP POP POP ISZERO DUP1 ISZERO PUSH2 0xBCC JUMPI RETURNDATASIZE PUSH1 0x0 DUP1 RETURNDATACOPY RETURNDATASIZE PUSH1 0x0 REVERT JUMPDEST POP POP POP JUMPDEST POP POP JUMP JUMPDEST PUSH1 0x0 DUP2 DUP2 SLOAD DUP2 LT PUSH2 0xBE4 JUMPI PUSH1 0x0 DUP1 REVERT JUMPDEST SWAP1 PUSH1 0x0 MSTORE PUSH1 0x20 PUSH1 0x0 KECCAK256 ADD PUSH1 0x0 SWAP2 POP SLOAD SWAP1 PUSH2 0x100 EXP SWAP1 DIV PUSH20 0xFFFFFFFFFFFFFFFFFFFFFFFFFFFFFFFFFFFFFFFF AND DUP2 JUMP JUMPDEST PUSH1 0x3 PUSH1 0x20 MSTORE DUP2 PUSH1 0x0 MSTORE PUSH1 0x40 PUSH1 0x0 KECCAK256 PUSH1 0x20 MSTORE DUP1 PUSH1 0x0 MSTORE PUSH1 0x40 PUSH1 0x0 KECCAK256 PUSH1 0x0 SWAP2 POP SWAP2 POP SWAP1 SLOAD SWAP1 PUSH2 0x100 EXP SWAP1 DIV PUSH1 0xFF AND DUP2 JUMP JUMPDEST PUSH1 0x0 DUP2 SWAP1 POP SWAP2 SWAP1 POP JUMP JUMPDEST PUSH2 0xC55 DUP2 PUSH2 0xC42 JUMP JUMPDEST DUP3 MSTORE POP POP JUMP JUMPDEST PUSH1 0x0 PUSH1 0x20 DUP3 ADD SWAP1 POP PUSH2 0xC70 PUSH1 0x0 DUP4 ADD DUP5 PUSH2 0xC4C JUMP JUMPDEST SWAP3 SWAP2 POP POP JUMP JUMPDEST PUSH1 0x0 DUP2 MLOAD SWAP1 POP SWAP2 SWAP1 POP JUMP JUMPDEST PUSH1 0x0 DUP3 DUP3 MSTORE PUSH1 0x20 DUP3 ADD SWAP1 POP SWAP3 SWAP2 POP POP JUMP JUMPDEST PUSH1 0x0 DUP2 SWAP1 POP PUSH1 0x20 DUP3 ADD SWAP1 POP SWAP2 SWAP1 POP JUMP JUMPDEST PUSH2 0xCAB DUP2 PUSH2 0xC42 JUMP JUMPDEST DUP3 MSTORE POP POP JUMP JUMPDEST PUSH1 0x0 PUSH20 0xFFFFFFFFFFFFFFFFFFFFFFFFFFFFFFFFFFFFFFFF DUP3 AND SWAP1 POP SWAP2 SWAP1 POP JUMP JUMPDEST PUSH1 0x0 PUSH2 0xCDC DUP3 PUSH2 0xCB1 JUMP JUMPDEST SWAP1 POP SWAP2 SWAP1 POP JUMP JUMPDEST PUSH2 0xCEC DUP2 PUSH2 0xCD1 JUMP JUMPDEST DUP3 MSTORE POP POP JUMP JUMPDEST PUSH1 0x0 DUP2 ISZERO ISZERO SWAP1 POP SWAP2 SWAP1 POP JUMP JUMPDEST PUSH2 0xD07 DUP2 PUSH2 0xCF2 JUMP JUMPDEST DUP3 MSTORE POP POP JUMP JUMPDEST PUSH1 0xA0 DUP3 ADD PUSH1 0x0 DUP3 ADD MLOAD PUSH2 0xD23 PUSH1 0x0 DUP6 ADD DUP3 PUSH2 0xCA2 JUMP JUMPDEST POP PUSH1 0x20 DUP3 ADD MLOAD PUSH2 0xD36 PUSH1 0x20 DUP6 ADD DUP3 PUSH2 0xCA2 JUMP JUMPDEST POP PUSH1 0x40 DUP3 ADD MLOAD PUSH2 0xD49 PUSH1 0x40 DUP6 ADD DUP3 PUSH2 0xCE3 JUMP JUMPDEST POP PUSH1 0x60 DUP3 ADD MLOAD PUSH2 0xD5C PUSH1 0x60 DUP6 ADD DUP3 PUSH2 0xCA2 JUMP JUMPDEST POP PUSH1 0x80 DUP3 ADD MLOAD PUSH2 0xD6F PUSH1 0x80 DUP6 ADD DUP3 PUSH2 0xCFE JUMP JUMPDEST POP POP POP POP JUMP JUMPDEST PUSH1 0x0 PUSH2 0xD81 DUP4 DUP4 PUSH2 0xD0D JUMP JUMPDEST PUSH1 0xA0 DUP4 ADD SWAP1 POP SWAP3 SWAP2 POP POP JUMP JUMPDEST PUSH1 0x0 PUSH1 0x20 DUP3 ADD SWAP1 POP SWAP2 SWAP1 POP JUMP JUMPDEST PUSH1 0x0 PUSH2 0xDA5 DUP3 PUSH2 0xC76 JUMP JUMPDEST PUSH2 0xDAF DUP2 DUP6 PUSH2 0xC81 JUMP JUMPDEST SWAP4 POP PUSH2 0xDBA DUP4 PUSH2 0xC92 JUMP JUMPDEST DUP1 PUSH1 0x0 JUMPDEST DUP4 DUP2 LT ISZERO PUSH2 0xDEB JUMPI DUP2 MLOAD PUSH2 0xDD2 DUP9 DUP3 PUSH2 0xD75 JUMP JUMPDEST SWAP8 POP PUSH2 0xDDD DUP4 PUSH2 0xD8D JUMP JUMPDEST SWAP3 POP POP PUSH1 0x1 DUP2 ADD SWAP1 POP PUSH2 0xDBE JUMP JUMPDEST POP DUP6 SWAP4 POP POP POP POP SWAP3 SWAP2 POP POP JUMP JUMPDEST PUSH1 0x0 PUSH1 0x20 DUP3 ADD SWAP1 POP DUP2 DUP2 SUB PUSH1 0x0 DUP4 ADD MSTORE PUSH2 0xE12 DUP2 DUP5 PUSH2 0xD9A JUMP JUMPDEST SWAP1 POP SWAP3 SWAP2 POP POP JUMP JUMPDEST PUSH1 0x0 DUP1 REVERT JUMPDEST PUSH2 0xE28 DUP2 PUSH2 0xC42 JUMP JUMPDEST DUP2 EQ PUSH2 0xE33 JUMPI PUSH1 0x0 DUP1 REVERT JUMPDEST POP JUMP JUMPDEST PUSH1 0x0 DUP2 CALLDATALOAD SWAP1 POP PUSH2 0xE45 DUP2 PUSH2 0xE1F JUMP JUMPDEST SWAP3 SWAP2 POP POP JUMP JUMPDEST PUSH2 0xE54 DUP2 PUSH2 0xCD1 JUMP JUMPDEST DUP2 EQ PUSH2 0xE5F JUMPI PUSH1 0x0 DUP1 REVERT JUMPDEST POP JUMP JUMPDEST PUSH1 0x0 DUP2 CALLDATALOAD SWAP1 POP PUSH2 0xE71 DUP2 PUSH2 0xE4B JUMP JUMPDEST SWAP3 SWAP2 POP POP JUMP JUMPDEST PUSH1 0x0 DUP1 PUSH1 0x40 DUP4 DUP6 SUB SLT ISZERO PUSH2 0xE8E JUMPI PUSH2 0xE8D PUSH2 0xE1A JUMP JUMPDEST JUMPDEST PUSH1 0x0 PUSH2 0xE9C DUP6 DUP3 DUP7 ADD PUSH2 0xE36 JUMP JUMPDEST SWAP3 POP POP PUSH1 0x20 PUSH2 0xEAD DUP6 DUP3 DUP7 ADD PUSH2 0xE62 JUMP JUMPDEST SWAP2 POP POP SWAP3 POP SWAP3 SWAP1 POP JUMP JUMPDEST PUSH1 0x0 DUP2 MLOAD SWAP1 POP SWAP2 SWAP1 POP JUMP JUMPDEST PUSH1 0x0 DUP3 DUP3 MSTORE PUSH1 0x20 DUP3 ADD SWAP1 POP SWAP3 SWAP2 POP POP JUMP JUMPDEST PUSH1 0x0 DUP2 SWAP1 POP PUSH1 0x20 DUP3 ADD SWAP1 POP SWAP2 SWAP1 POP JUMP JUMPDEST PUSH1 0x0 PUSH2 0xEEE DUP3 PUSH2 0xCB1 JUMP JUMPDEST SWAP1 POP SWAP2 SWAP1 POP JUMP JUMPDEST PUSH2 0xEFE DUP2 PUSH2 0xEE3 JUMP JUMPDEST DUP3 MSTORE POP POP JUMP JUMPDEST PUSH1 0x0 PUSH2 0xF10 DUP4 DUP4 PUSH2 0xEF5 JUMP JUMPDEST PUSH1 0x20 DUP4 ADD SWAP1 POP SWAP3 SWAP2 POP POP JUMP JUMPDEST PUSH1 0x0 PUSH1 0x20 DUP3 ADD SWAP1 POP SWAP2 SWAP1 POP JUMP JUMPDEST PUSH1 0x0 PUSH2 0xF34 DUP3 PUSH2 0xEB7 JUMP JUMPDEST PUSH2 0xF3E DUP2 DUP6 PUSH2 0xEC2 JUMP JUMPDEST SWAP4 POP PUSH2 0xF49 DUP4 PUSH2 0xED3 JUMP JUMPDEST DUP1 PUSH1 0x0 JUMPDEST DUP4 DUP2 LT ISZERO PUSH2 0xF7A JUMPI DUP2 MLOAD PUSH2 0xF61 DUP9 DUP3 PUSH2 0xF04 JUMP JUMPDEST SWAP8 POP PUSH2 0xF6C DUP4 PUSH2 0xF1C JUMP JUMPDEST SWAP3 POP POP PUSH1 0x1 DUP2 ADD SWAP1 POP PUSH2 0xF4D JUMP JUMPDEST POP DUP6 SWAP4 POP POP POP POP SWAP3 SWAP2 POP POP JUMP JUMPDEST PUSH1 0x0 PUSH1 0x20 DUP3 ADD SWAP1 POP DUP2 DUP2 SUB PUSH1 0x0 DUP4 ADD MSTORE PUSH2 0xFA1 DUP2 DUP5 PUSH2 0xF29 JUMP JUMPDEST SWAP1 POP SWAP3 SWAP2 POP POP JUMP JUMPDEST PUSH1 0x0 PUSH1 0x20 DUP3 DUP5 SUB SLT ISZERO PUSH2 0xFBF JUMPI PUSH2 0xFBE PUSH2 0xE1A JUMP JUMPDEST JUMPDEST PUSH1 0x0 PUSH2 0xFCD DUP5 DUP3 DUP6 ADD PUSH2 0xE36 JUMP JUMPDEST SWAP2 POP POP SWAP3 SWAP2 POP POP JUMP JUMPDEST PUSH2 0xFDF DUP2 PUSH2 0xCD1 JUMP JUMPDEST DUP3 MSTORE POP POP JUMP JUMPDEST PUSH2 0xFEE DUP2 PUSH2 0xCF2 JUMP JUMPDEST DUP3 MSTORE POP POP JUMP JUMPDEST PUSH1 0x0 PUSH1 0xA0 DUP3 ADD SWAP1 POP PUSH2 0x1009 PUSH1 0x0 DUP4 ADD DUP9 PUSH2 0xC4C JUMP JUMPDEST PUSH2 0x1016 PUSH1 0x20 DUP4 ADD DUP8 PUSH2 0xC4C JUMP JUMPDEST PUSH2 0x1023 PUSH1 0x40 DUP4 ADD DUP7 PUSH2 0xFD6 JUMP JUMPDEST PUSH2 0x1030 PUSH1 0x60 DUP4 ADD DUP6 PUSH2 0xC4C JUMP JUMPDEST PUSH2 0x103D PUSH1 0x80 DUP4 ADD DUP5 PUSH2 0xFE5 JUMP JUMPDEST SWAP7 SWAP6 POP POP POP POP POP POP JUMP JUMPDEST PUSH2 0x1050 DUP2 PUSH2 0xEE3 JUMP JUMPDEST DUP2 EQ PUSH2 0x105B JUMPI PUSH1 0x0 DUP1 REVERT JUMPDEST POP JUMP JUMPDEST PUSH1 0x0 DUP2 CALLDATALOAD SWAP1 POP PUSH2 0x106D DUP2 PUSH2 0x1047 JUMP JUMPDEST SWAP3 SWAP2 POP POP JUMP JUMPDEST PUSH1 0x0 PUSH1 0x20 DUP3 DUP5 SUB SLT ISZERO PUSH2 0x1089 JUMPI PUSH2 0x1088 PUSH2 0xE1A JUMP JUMPDEST JUMPDEST PUSH1 0x0 PUSH2 0x1097 DUP5 DUP3 DUP6 ADD PUSH2 0x105E JUMP JUMPDEST SWAP2 POP POP SWAP3 SWAP2 POP POP JUMP JUMPDEST PUSH1 0x0 DUP2 MLOAD SWAP1 POP SWAP2 SWAP1 POP JUMP JUMPDEST PUSH1 0x0 DUP3 DUP3 MSTORE PUSH1 0x20 DUP3 ADD SWAP1 POP SWAP3 SWAP2 POP POP JUMP JUMPDEST PUSH1 0x0 DUP2 SWAP1 POP PUSH1 0x20 DUP3 ADD SWAP1 POP SWAP2 SWAP1 POP JUMP JUMPDEST PUSH1 0x0 PUSH2 0x10D8 DUP4 DUP4 PUSH2 0xCFE JUMP JUMPDEST PUSH1 0x20 DUP4 ADD SWAP1 POP SWAP3 SWAP2 POP POP JUMP JUMPDEST PUSH1 0x0 PUSH1 0x20 DUP3 ADD SWAP1 POP SWAP2 SWAP1 POP JUMP JUMPDEST PUSH1 0x0 PUSH2 0x10FC DUP3 PUSH2 0x10A0 JUMP JUMPDEST PUSH2 0x1106 DUP2 DUP6 PUSH2 0x10AB JUMP JUMPDEST SWAP4 POP PUSH2 0x1111 DUP4 PUSH2 0x10BC JUMP JUMPDEST DUP1 PUSH1 0x0 JUMPDEST DUP4 DUP2 LT ISZERO PUSH2 0x1142 JUMPI DUP2 MLOAD PUSH2 0x1129 DUP9 DUP3 PUSH2 0x10CC JUMP JUMPDEST SWAP8 POP PUSH2 0x1134 DUP4 PUSH2 0x10E4 JUMP JUMPDEST SWAP3 POP POP PUSH1 0x1 DUP2 ADD SWAP1 POP PUSH2 0x1115 JUMP JUMPDEST POP DUP6 SWAP4 POP POP POP POP SWAP3 SWAP2 POP POP JUMP JUMPDEST PUSH1 0x0 PUSH1 0x20 DUP3 ADD SWAP1 POP DUP2 DUP2 SUB PUSH1 0x0 DUP4 ADD MSTORE PUSH2 0x1169 DUP2 DUP5 PUSH2 0x10F1 JUMP JUMPDEST SWAP1 POP SWAP3 SWAP2 POP POP JUMP JUMPDEST PUSH2 0x117A DUP2 PUSH2 0xEE3 JUMP JUMPDEST DUP3 MSTORE POP POP JUMP JUMPDEST PUSH1 0x0 PUSH1 0x20 DUP3 ADD SWAP1 POP PUSH2 0x1195 PUSH1 0x0 DUP4 ADD DUP5 PUSH2 0x1171 JUMP JUMPDEST SWAP3 SWAP2 POP POP JUMP JUMPDEST PUSH1 0x0 DUP1 PUSH1 0x40 DUP4 DUP6 SUB SLT ISZERO PUSH2 0x11B2 JUMPI PUSH2 0x11B1 PUSH2 0xE1A JUMP JUMPDEST JUMPDEST PUSH1 0x0 PUSH2 0x11C0 DUP6 DUP3 DUP7 ADD PUSH2 0x105E JUMP JUMPDEST SWAP3 POP POP PUSH1 0x20 PUSH2 0x11D1 DUP6 DUP3 DUP7 ADD PUSH2 0xE36 JUMP JUMPDEST SWAP2 POP POP SWAP3 POP SWAP3 SWAP1 POP JUMP JUMPDEST PUSH1 0x0 PUSH1 0x20 DUP3 ADD SWAP1 POP PUSH2 0x11F0 PUSH1 0x0 DUP4 ADD DUP5 PUSH2 0xFE5 JUMP JUMPDEST SWAP3 SWAP2 POP POP JUMP JUMPDEST PUSH32 0x4E487B7100000000000000000000000000000000000000000000000000000000 PUSH1 0x0 MSTORE PUSH1 0x32 PUSH1 0x4 MSTORE PUSH1 0x24 PUSH1 0x0 REVERT JUMPDEST PUSH32 0x4E487B7100000000000000000000000000000000000000000000000000000000 PUSH1 0x0 MSTORE PUSH1 0x11 PUSH1 0x4 MSTORE PUSH1 0x24 PUSH1 0x0 REVERT JUMPDEST PUSH1 0x0 PUSH2 0x125F DUP3 PUSH2 0xC42 JUMP JUMPDEST SWAP2 POP PUSH32 0xFFFFFFFFFFFFFFFFFFFFFFFFFFFFFFFFFFFFFFFFFFFFFFFFFFFFFFFFFFFFFFFF DUP3 EQ ISZERO PUSH2 0x1292 JUMPI PUSH2 0x1291 PUSH2 0x1225 JUMP JUMPDEST JUMPDEST PUSH1 0x1 DUP3 ADD SWAP1 POP SWAP2 SWAP1 POP JUMP JUMPDEST PUSH1 0x0 DUP3 DUP3 MSTORE PUSH1 0x20 DUP3 ADD SWAP1 POP SWAP3 SWAP2 POP POP JUMP JUMPDEST PUSH32 0x6F6E6C7920616E20617070726F7665722063616E2063616C6C20746869732066 PUSH1 0x0 DUP3 ADD MSTORE PUSH32 0x756E6374696F6E00000000000000000000000000000000000000000000000000 PUSH1 0x20 DUP3 ADD MSTORE POP JUMP JUMPDEST PUSH1 0x0 PUSH2 0x130A PUSH1 0x27 DUP4 PUSH2 0x129D JUMP JUMPDEST SWAP2 POP PUSH2 0x1315 DUP3 PUSH2 0x12AE JUMP JUMPDEST PUSH1 0x40 DUP3 ADD SWAP1 POP SWAP2 SWAP1 POP JUMP JUMPDEST PUSH1 0x0 PUSH1 0x20 DUP3 ADD SWAP1 POP DUP2 DUP2 SUB PUSH1 0x0 DUP4 ADD MSTORE PUSH2 0x1339 DUP2 PUSH2 0x12FD JUMP JUMPDEST SWAP1 POP SWAP2 SWAP1 POP JUMP JUMPDEST PUSH32 0x4E487B7100000000000000000000000000000000000000000000000000000000 PUSH1 0x0 MSTORE PUSH1 0x41 PUSH1 0x4 MSTORE PUSH1 0x24 PUSH1 0x0 REVERT JUMPDEST PUSH32 0x7472616E736665722068617320616C7265616479206265656E2073656E740000 PUSH1 0x0 DUP3 ADD MSTORE POP JUMP JUMPDEST PUSH1 0x0 PUSH2 0x13A5 PUSH1 0x1E DUP4 PUSH2 0x129D JUMP JUMPDEST SWAP2 POP PUSH2 0x13B0 DUP3 PUSH2 0x136F JUMP JUMPDEST PUSH1 0x20 DUP3 ADD SWAP1 POP SWAP2 SWAP1 POP JUMP JUMPDEST PUSH1 0x0 PUSH1 0x20 DUP3 ADD SWAP1 POP DUP2 DUP2 SUB PUSH1 0x0 DUP4 ADD MSTORE PUSH2 0x13D4 DUP2 PUSH2 0x1398 JUMP JUMPDEST SWAP1 POP SWAP2 SWAP1 POP JUMP JUMPDEST PUSH32 0x7472616E736665722068617320616C7265616479206265656E20617070726F76 PUSH1 0x0 DUP3 ADD MSTORE PUSH32 0x6564000000000000000000000000000000000000000000000000000000000000 PUSH1 0x20 DUP3 ADD MSTORE POP JUMP JUMPDEST PUSH1 0x0 PUSH2 0x1437 PUSH1 0x22 DUP4 PUSH2 0x129D JUMP JUMPDEST SWAP2 POP PUSH2 0x1442 DUP3 PUSH2 0x13DB JUMP JUMPDEST PUSH1 0x40 DUP3 ADD SWAP1 POP SWAP2 SWAP1 POP JUMP JUMPDEST PUSH1 0x0 PUSH1 0x20 DUP3 ADD SWAP1 POP DUP2 DUP2 SUB PUSH1 0x0 DUP4 ADD MSTORE PUSH2 0x1466 DUP2 PUSH2 0x142A JUMP JUMPDEST SWAP1 POP SWAP2 SWAP1 POP JUMP INVALID LOG2 PUSH5 0x6970667358 0x22 SLT KECCAK256 MSIZE 0x5C 0xF7 0xDC 0xB8 0xD1 PUSH29 0x9F45450F8108F2C2FBA8C4D3F062E3607B74F0CFABE3602B0364736F6C PUSH4 0x43000809 STOP CALLER "
        },
        "methodIdentifiers": {
          "approvals(address,uint256)": "ffabc673",
          "approveTransfer(uint256)": "cacca4a0",
          "approvers(uint256)": "d3650fb8",
          "createTransfer(uint256,address)": "4c12fa47",
          "getApprovalsByApprover(address)": "9e2e00c3",
          "getApprovers()": "6cb3e8ef",
          "getTransfers()": "2f65142c",
          "quorum()": "1703a018",
          "transfers(uint256)": "9377d711"
        }
      }
    }
  }
}