{
  "_format": "hh-sol-artifact-1",
  "contractName": "MultisigWallet",
  "sourceName": "contracts/MultisigWallet.sol",
  "abi": [
    {
      "inputs": [
        {
          "internalType": "address[]",
          "name": "_approvers",
          "type": "address[]"
        },
        {
          "internalType": "uint256",
          "name": "_quorum",
          "type": "uint256"
        }
      ],
      "stateMutability": "nonpayable",
      "type": "constructor"
    },
    {
      "inputs": [
        {
          "internalType": "address",
          "name": "",
          "type": "address"
        },
        {
          "internalType": "uint256",
          "name": "",
          "type": "uint256"
        }
      ],
      "name": "approvals",
      "outputs": [
        {
          "internalType": "bool",
          "name": "",
          "type": "bool"
        }
      ],
      "stateMutability": "view",
      "type": "function"
    },
    {
      "inputs": [
        {
          "internalType": "uint256",
          "name": "id",
          "type": "uint256"
        }
      ],
      "name": "approveTransfer",
      "outputs": [],
      "stateMutability": "nonpayable",
      "type": "function"
    },
    {
      "inputs": [
        {
          "internalType": "uint256",
          "name": "",
          "type": "uint256"
        }
      ],
      "name": "approvers",
      "outputs": [
        {
          "internalType": "address",
          "name": "",
          "type": "address"
        }
      ],
      "stateMutability": "view",
      "type": "function"
    },
    {
      "inputs": [
        {
          "internalType": "uint256",
          "name": "amount",
          "type": "uint256"
        },
        {
          "internalType": "address payable",
          "name": "to",
          "type": "address"
        }
      ],
      "name": "createTransfer",
      "outputs": [],
      "stateMutability": "nonpayable",
      "type": "function"
    },
    {
      "inputs": [
        {
          "internalType": "address",
          "name": "approver",
          "type": "address"
        }
      ],
      "name": "getApprovalsByApprover",
      "outputs": [
        {
          "internalType": "bool[]",
          "name": "userApprovals",
          "type": "bool[]"
        }
      ],
      "stateMutability": "view",
      "type": "function"
    },
    {
      "inputs": [],
      "name": "getApprovers",
      "outputs": [
        {
          "internalType": "address[]",
          "name": "",
          "type": "address[]"
        }
      ],
      "stateMutability": "view",
      "type": "function"
    },
    {
      "inputs": [],
      "name": "getTransfers",
      "outputs": [
        {
          "components": [
            {
              "internalType": "uint256",
              "name": "id",
              "type": "uint256"
            },
            {
              "internalType": "uint256",
              "name": "amount",
              "type": "uint256"
            },
            {
              "internalType": "address payable",
              "name": "to",
              "type": "address"
            },
            {
              "internalType": "uint256",
              "name": "approvals",
              "type": "uint256"
            },
            {
              "internalType": "bool",
              "name": "sent",
              "type": "bool"
            }
          ],
          "internalType": "struct MultisigWallet.Transfer[]",
          "name": "",
          "type": "tuple[]"
        }
      ],
      "stateMutability": "view",
      "type": "function"
    },
    {
      "inputs": [],
      "name": "quorum",
      "outputs": [
        {
          "internalType": "uint256",
          "name": "",
          "type": "uint256"
        }
      ],
      "stateMutability": "view",
      "type": "function"
    },
    {
      "inputs": [
        {
          "internalType": "uint256",
          "name": "",
          "type": "uint256"
        }
      ],
      "name": "transfers",
      "outputs": [
        {
          "internalType": "uint256",
          "name": "id",
          "type": "uint256"
        },
        {
          "internalType": "uint256",
          "name": "amount",
          "type": "uint256"
        },
        {
          "internalType": "address payable",
          "name": "to",
          "type": "address"
        },
        {
          "internalType": "uint256",
          "name": "approvals",
          "type": "uint256"
        },
        {
          "internalType": "bool",
          "name": "sent",
          "type": "bool"
        }
      ],
      "stateMutability": "view",
      "type": "function"
    },
    {
      "stateMutability": "payable",
      "type": "receive"
    }
  ],
  "bytecode": "0x60806040523480156200001157600080fd5b506040516200184f3803806200184f833981810160405281019062000037919062000336565b81600090805190602001906200004f9291906200005f565b508060018190555050506200039c565b828054828255906000526020600020908101928215620000db579160200282015b82811115620000da5782518260006101000a81548173ffffffffffffffffffffffffffffffffffffffff021916908373ffffffffffffffffffffffffffffffffffffffff1602179055509160200191906001019062000080565b5b509050620000ea9190620000ee565b5090565b5b8082111562000109576000816000905550600101620000ef565b5090565b6000604051905090565b600080fd5b600080fd5b600080fd5b6000601f19601f8301169050919050565b7f4e487b7100000000000000000000000000000000000000000000000000000000600052604160045260246000fd5b620001718262000126565b810181811067ffffffffffffffff8211171562000193576200019262000137565b5b80604052505050565b6000620001a86200010d565b9050620001b6828262000166565b919050565b600067ffffffffffffffff821115620001d957620001d862000137565b5b602082029050602081019050919050565b600080fd5b600073ffffffffffffffffffffffffffffffffffffffff82169050919050565b60006200021c82620001ef565b9050919050565b6200022e816200020f565b81146200023a57600080fd5b50565b6000815190506200024e8162000223565b92915050565b60006200026b6200026584620001bb565b6200019c565b90508083825260208201905060208402830185811115620002915762000290620001ea565b5b835b81811015620002be5780620002a988826200023d565b84526020840193505060208101905062000293565b5050509392505050565b600082601f830112620002e057620002df62000121565b5b8151620002f284826020860162000254565b91505092915050565b6000819050919050565b6200031081620002fb565b81146200031c57600080fd5b50565b600081519050620003308162000305565b92915050565b6000806040838503121562000350576200034f62000117565b5b600083015167ffffffffffffffff8111156200037157620003706200011c565b5b6200037f85828601620002c8565b925050602062000392858286016200031f565b9150509250929050565b6114a380620003ac6000396000f3fe60806040526004361061008a5760003560e01c80639377d711116100595780639377d711146101405780639e2e00c314610181578063cacca4a0146101be578063d3650fb8146101e7578063ffabc6731461022457610091565b80631703a018146100965780632f65142c146100c15780634c12fa47146100ec5780636cb3e8ef1461011557610091565b3661009157005b600080fd5b3480156100a257600080fd5b506100ab610261565b6040516100b89190610c5b565b60405180910390f35b3480156100cd57600080fd5b506100d6610267565b6040516100e39190610df8565b60405180910390f35b3480156100f857600080fd5b50610113600480360381019061010e9190610e77565b610355565b005b34801561012157600080fd5b5061012a610532565b6040516101379190610f87565b60405180910390f35b34801561014c57600080fd5b5061016760048036038101906101629190610fa9565b6105c0565b604051610178959493929190610ff4565b60405180910390f35b34801561018d57600080fd5b506101a860048036038101906101a39190611073565b610633565b6040516101b5919061114f565b60405180910390f35b3480156101ca57600080fd5b506101e560048036038101906101e09190610fa9565b610811565b005b3480156101f357600080fd5b5061020e60048036038101906102099190610fa9565b610bd4565b60405161021b9190611180565b60405180910390f35b34801561023057600080fd5b5061024b6004803603810190610246919061119b565b610c13565b60405161025891906111db565b60405180910390f35b60015481565b60606002805480602002602001604051908101604052809291908181526020016000905b8282101561034c57838290600052602060002090600502016040518060a001604052908160008201548152602001600182015481526020016002820160009054906101000a900473ffffffffffffffffffffffffffffffffffffffff1673ffffffffffffffffffffffffffffffffffffffff1673ffffffffffffffffffffffffffffffffffffffff168152602001600382015481526020016004820160009054906101000a900460ff1615151515815250508152602001906001019061028b565b50505050905090565b6000805b6000805490508110156103f4573373ffffffffffffffffffffffffffffffffffffffff1660008281548110610391576103906111f6565b5b9060005260206000200160009054906101000a900473ffffffffffffffffffffffffffffffffffffffff1673ffffffffffffffffffffffffffffffffffffffff1614156103e157600191506103f4565b80806103ec90611254565b915050610359565b5080610435576040517f08c379a000000000000000000000000000000000000000000000000000000000815260040161042c90611320565b60405180910390fd5b60026040518060a0016040528060028054905081526020018581526020018473ffffffffffffffffffffffffffffffffffffffff16815260200160008152602001600015158152509080600181540180825580915050600190039060005260206000209060050201600090919091909150600082015181600001556020820151816001015560408201518160020160006101000a81548173ffffffffffffffffffffffffffffffffffffffff021916908373ffffffffffffffffffffffffffffffffffffffff1602179055506060820151816003015560808201518160040160006101000a81548160ff0219169083151502179055505050505050565b606060008054806020026020016040519081016040528092919081815260200182805480156105b657602002820191906000526020600020905b8160009054906101000a900473ffffffffffffffffffffffffffffffffffffffff1673ffffffffffffffffffffffffffffffffffffffff168152602001906001019080831161056c575b5050505050905090565b600281815481106105d057600080fd5b90600052602060002090600502016000915090508060000154908060010154908060020160009054906101000a900473ffffffffffffffffffffffffffffffffffffffff16908060030154908060040160009054906101000a900460ff16905085565b60606000805b6000805490508110156106d4573373ffffffffffffffffffffffffffffffffffffffff1660008281548110610671576106706111f6565b5b9060005260206000200160009054906101000a900473ffffffffffffffffffffffffffffffffffffffff1673ffffffffffffffffffffffffffffffffffffffff1614156106c157600191506106d4565b80806106cc90611254565b915050610639565b5080610715576040517f08c379a000000000000000000000000000000000000000000000000000000000815260040161070c90611320565b60405180910390fd5b600060028054905090508067ffffffffffffffff81111561073957610738611340565b5b6040519080825280602002602001820160405280156107675781602001602082028036833780820191505090505b50925060005b8181101561080957600360008673ffffffffffffffffffffffffffffffffffffffff1673ffffffffffffffffffffffffffffffffffffffff168152602001908152602001600020600082815260200190815260200160002060009054906101000a900460ff168482815181106107e6576107e56111f6565b5b6020026020010190151590811515815250508061080290611254565b905061076d565b505050919050565b6000805b6000805490508110156108b0573373ffffffffffffffffffffffffffffffffffffffff166000828154811061084d5761084c6111f6565b5b9060005260206000200160009054906101000a900473ffffffffffffffffffffffffffffffffffffffff1673ffffffffffffffffffffffffffffffffffffffff16141561089d57600191506108b0565b80806108a890611254565b915050610815565b50806108f1576040517f08c379a00000000000000000000000000000000000000000000000000000000081526004016108e890611320565b60405180910390fd5b60028281548110610905576109046111f6565b5b906000526020600020906005020160040160009054906101000a900460ff1615610964576040517f08c379a000000000000000000000000000000000000000000000000000000000815260040161095b906113bb565b60405180910390fd5b600360003373ffffffffffffffffffffffffffffffffffffffff1673ffffffffffffffffffffffffffffffffffffffff168152602001908152602001600020600083815260200190815260200160002060009054906101000a900460ff1615610a02576040517f08c379a00000000000000000000000000000000000000000000000000000000081526004016109f99061144d565b60405180910390fd5b6001600360003373ffffffffffffffffffffffffffffffffffffffff1673ffffffffffffffffffffffffffffffffffffffff168152602001908152602001600020600084815260200190815260200160002060006101000a81548160ff02191690831515021790555060028281548110610a7f57610a7e6111f6565b5b90600052602060002090600502016003016000815480929190610aa190611254565b919050555060015460028381548110610abd57610abc6111f6565b5b90600052602060002090600502016003015410610bd057600160028381548110610aea57610ae96111f6565b5b906000526020600020906005020160040160006101000a81548160ff021916908315150217905550600060028381548110610b2857610b276111f6565b5b906000526020600020906005020160020160009054906101000a900473ffffffffffffffffffffffffffffffffffffffff169050600060028481548110610b7257610b716111f6565b5b90600052602060002090600502016001015490508173ffffffffffffffffffffffffffffffffffffffff166108fc829081150290604051600060405180830381858888f19350505050158015610bcc573d6000803e3d6000fd5b5050505b5050565b60008181548110610be457600080fd5b906000526020600020016000915054906101000a900473ffffffffffffffffffffffffffffffffffffffff1681565b60036020528160005260406000206020528060005260406000206000915091509054906101000a900460ff1681565b6000819050919050565b610c5581610c42565b82525050565b6000602082019050610c706000830184610c4c565b92915050565b600081519050919050565b600082825260208201905092915050565b6000819050602082019050919050565b610cab81610c42565b82525050565b600073ffffffffffffffffffffffffffffffffffffffff82169050919050565b6000610cdc82610cb1565b9050919050565b610cec81610cd1565b82525050565b60008115159050919050565b610d0781610cf2565b82525050565b60a082016000820151610d236000850182610ca2565b506020820151610d366020850182610ca2565b506040820151610d496040850182610ce3565b506060820151610d5c6060850182610ca2565b506080820151610d6f6080850182610cfe565b50505050565b6000610d818383610d0d565b60a08301905092915050565b6000602082019050919050565b6000610da582610c76565b610daf8185610c81565b9350610dba83610c92565b8060005b83811015610deb578151610dd28882610d75565b9750610ddd83610d8d565b925050600181019050610dbe565b5085935050505092915050565b60006020820190508181036000830152610e128184610d9a565b905092915050565b600080fd5b610e2881610c42565b8114610e3357600080fd5b50565b600081359050610e4581610e1f565b92915050565b610e5481610cd1565b8114610e5f57600080fd5b50565b600081359050610e7181610e4b565b92915050565b60008060408385031215610e8e57610e8d610e1a565b5b6000610e9c85828601610e36565b9250506020610ead85828601610e62565b9150509250929050565b600081519050919050565b600082825260208201905092915050565b6000819050602082019050919050565b6000610eee82610cb1565b9050919050565b610efe81610ee3565b82525050565b6000610f108383610ef5565b60208301905092915050565b6000602082019050919050565b6000610f3482610eb7565b610f3e8185610ec2565b9350610f4983610ed3565b8060005b83811015610f7a578151610f618882610f04565b9750610f6c83610f1c565b925050600181019050610f4d565b5085935050505092915050565b60006020820190508181036000830152610fa18184610f29565b905092915050565b600060208284031215610fbf57610fbe610e1a565b5b6000610fcd84828501610e36565b91505092915050565b610fdf81610cd1565b82525050565b610fee81610cf2565b82525050565b600060a0820190506110096000830188610c4c565b6110166020830187610c4c565b6110236040830186610fd6565b6110306060830185610c4c565b61103d6080830184610fe5565b9695505050505050565b61105081610ee3565b811461105b57600080fd5b50565b60008135905061106d81611047565b92915050565b60006020828403121561108957611088610e1a565b5b60006110978482850161105e565b91505092915050565b600081519050919050565b600082825260208201905092915050565b6000819050602082019050919050565b60006110d88383610cfe565b60208301905092915050565b6000602082019050919050565b60006110fc826110a0565b61110681856110ab565b9350611111836110bc565b8060005b8381101561114257815161112988826110cc565b9750611134836110e4565b925050600181019050611115565b5085935050505092915050565b6000602082019050818103600083015261116981846110f1565b905092915050565b61117a81610ee3565b82525050565b60006020820190506111956000830184611171565b92915050565b600080604083850312156111b2576111b1610e1a565b5b60006111c08582860161105e565b92505060206111d185828601610e36565b9150509250929050565b60006020820190506111f06000830184610fe5565b92915050565b7f4e487b7100000000000000000000000000000000000000000000000000000000600052603260045260246000fd5b7f4e487b7100000000000000000000000000000000000000000000000000000000600052601160045260246000fd5b600061125f82610c42565b91507fffffffffffffffffffffffffffffffffffffffffffffffffffffffffffffffff82141561129257611291611225565b5b600182019050919050565b600082825260208201905092915050565b7f6f6e6c7920616e20617070726f7665722063616e2063616c6c2074686973206660008201527f756e6374696f6e00000000000000000000000000000000000000000000000000602082015250565b600061130a60278361129d565b9150611315826112ae565b604082019050919050565b60006020820190508181036000830152611339816112fd565b9050919050565b7f4e487b7100000000000000000000000000000000000000000000000000000000600052604160045260246000fd5b7f7472616e736665722068617320616c7265616479206265656e2073656e740000600082015250565b60006113a5601e8361129d565b91506113b08261136f565b602082019050919050565b600060208201905081810360008301526113d481611398565b9050919050565b7f7472616e736665722068617320616c7265616479206265656e20617070726f7660008201527f6564000000000000000000000000000000000000000000000000000000000000602082015250565b600061143760228361129d565b9150611442826113db565b604082019050919050565b600060208201905081810360008301526114668161142a565b905091905056fea2646970667358221220595cf7dcb8d17c9f45450f8108f2c2fba8c4d3f062e3607b74f0cfabe3602b0364736f6c63430008090033",
  "linkReferences": {},
  "deployedLinkReferences": {}
}